{
  "contractName": "Auction",
  "abi": [
    {
      "inputs": [],
      "stateMutability": "nonpayable",
      "type": "constructor"
    },
    {
      "anonymous": false,
      "inputs": [
        {
          "indexed": false,
          "internalType": "address",
          "name": "winner",
          "type": "address"
        },
        {
          "indexed": false,
          "internalType": "uint256",
          "name": "amount",
          "type": "uint256"
        }
      ],
      "name": "AuctionEnded",
      "type": "event"
    },
    {
      "inputs": [],
      "name": "endTime",
      "outputs": [
        {
          "internalType": "uint256",
          "name": "",
          "type": "uint256"
        }
      ],
      "stateMutability": "view",
      "type": "function",
      "constant": true
    },
    {
      "inputs": [],
      "name": "highestBidAmount",
      "outputs": [
        {
          "internalType": "uint256",
          "name": "",
          "type": "uint256"
        }
      ],
      "stateMutability": "view",
      "type": "function",
      "constant": true
    },
    {
      "inputs": [],
      "name": "highestBidder",
      "outputs": [
        {
          "internalType": "address",
          "name": "",
          "type": "address"
        }
      ],
      "stateMutability": "view",
      "type": "function",
      "constant": true
    },
    {
      "inputs": [],
      "name": "owner",
      "outputs": [
        {
          "internalType": "address",
          "name": "",
          "type": "address"
        }
      ],
      "stateMutability": "view",
      "type": "function",
      "constant": true
    },
    {
      "inputs": [],
      "name": "startTime",
      "outputs": [
        {
          "internalType": "uint256",
          "name": "",
          "type": "uint256"
        }
      ],
      "stateMutability": "view",
      "type": "function",
      "constant": true
    },
    {
      "inputs": [],
      "name": "putBid",
      "outputs": [],
      "stateMutability": "payable",
      "type": "function",
      "payable": true
    },
    {
      "inputs": [],
      "name": "getHighestBidder",
      "outputs": [
        {
          "internalType": "address",
          "name": "",
          "type": "address"
        }
      ],
      "stateMutability": "view",
      "type": "function",
      "constant": true
    },
    {
      "inputs": [],
      "name": "getHighestBidAmount",
      "outputs": [
        {
          "internalType": "uint256",
          "name": "",
          "type": "uint256"
        }
      ],
      "stateMutability": "view",
      "type": "function",
      "constant": true
    },
    {
      "inputs": [
        {
          "internalType": "address payable",
          "name": "_address",
          "type": "address"
        }
      ],
      "name": "withdrawBid",
      "outputs": [],
      "stateMutability": "nonpayable",
      "type": "function"
    },
    {
      "inputs": [],
      "name": "endAuction",
      "outputs": [],
      "stateMutability": "nonpayable",
      "type": "function"
    }
  ],
  "bytecode": "0x608060405234801561001057600080fd5b5033600560006101000a81548173ffffffffffffffffffffffffffffffffffffffff021916908373ffffffffffffffffffffffffffffffffffffffff16021790555042600381905550607860035461006891906100ac565b600481905550610102565b6000819050919050565b7f4e487b7100000000000000000000000000000000000000000000000000000000600052601160045260246000fd5b60006100b782610073565b91506100c283610073565b9250827fffffffffffffffffffffffffffffffffffffffffffffffffffffffffffffffff038211156100f7576100f661007d565b5b828201905092915050565b610b9d806101116000396000f3fe6080604052600436106100905760003560e01c80638da5cb5b116100595780638da5cb5b1461016a5780638f9b48741461019557806391f90157146101c0578063f5cc772a146101eb578063fe67a54b146101f557610090565b80623495a4146100955780632d9ffe9f146100c05780633197cbb6146100eb5780634ede36481461011657806378e979251461013f575b600080fd5b3480156100a157600080fd5b506100aa61020c565b6040516100b79190610715565b60405180910390f35b3480156100cc57600080fd5b506100d5610236565b6040516100e29190610749565b60405180910390f35b3480156100f757600080fd5b50610100610240565b60405161010d9190610749565b60405180910390f35b34801561012257600080fd5b5061013d600480360381019061013891906107a7565b610246565b005b34801561014b57600080fd5b50610154610393565b6040516101619190610749565b60405180910390f35b34801561017657600080fd5b5061017f610399565b60405161018c9190610715565b60405180910390f35b3480156101a157600080fd5b506101aa6103bf565b6040516101b79190610749565b60405180910390f35b3480156101cc57600080fd5b506101d56103c5565b6040516101e29190610715565b60405180910390f35b6101f36103eb565b005b34801561020157600080fd5b5061020a6105a1565b005b6000600260009054906101000a900473ffffffffffffffffffffffffffffffffffffffff16905090565b6000600154905090565b60045481565b600454421161028a576040517f08c379a000000000000000000000000000000000000000000000000000000000815260040161028190610831565b60405180910390fd5b60008060008373ffffffffffffffffffffffffffffffffffffffff1673ffffffffffffffffffffffffffffffffffffffff168152602001908152602001600020541161030b576040517f08c379a00000000000000000000000000000000000000000000000000000000081526004016103029061089d565b60405180910390fd5b8073ffffffffffffffffffffffffffffffffffffffff166108fc6000808473ffffffffffffffffffffffffffffffffffffffff1673ffffffffffffffffffffffffffffffffffffffff168152602001908152602001600020549081150290604051600060405180830381858888f1935050505015801561038f573d6000803e3d6000fd5b5050565b60035481565b600560009054906101000a900473ffffffffffffffffffffffffffffffffffffffff1681565b60015481565b600260009054906101000a900473ffffffffffffffffffffffffffffffffffffffff1681565b60035442101580156103ff57506004544211155b61043e576040517f08c379a00000000000000000000000000000000000000000000000000000000081526004016104359061092f565b60405180910390fd5b6000346000803373ffffffffffffffffffffffffffffffffffffffff1673ffffffffffffffffffffffffffffffffffffffff1681526020019081526020016000205461048a919061097e565b9050600034116104cf576040517f08c379a00000000000000000000000000000000000000000000000000000000081526004016104c690610a20565b60405180910390fd5b6001548111610513576040517f08c379a000000000000000000000000000000000000000000000000000000000815260040161050a90610a8c565b60405180910390fd5b806000803373ffffffffffffffffffffffffffffffffffffffff1673ffffffffffffffffffffffffffffffffffffffff168152602001908152602001600020819055508060018190555033600260006101000a81548173ffffffffffffffffffffffffffffffffffffffff021916908373ffffffffffffffffffffffffffffffffffffffff16021790555050565b600560009054906101000a900473ffffffffffffffffffffffffffffffffffffffff1673ffffffffffffffffffffffffffffffffffffffff163373ffffffffffffffffffffffffffffffffffffffff1614610631576040517f08c379a000000000000000000000000000000000000000000000000000000000815260040161062890610b1e565b60405180910390fd5b6004544211610675576040517f08c379a000000000000000000000000000000000000000000000000000000000815260040161066c90610831565b60405180910390fd5b7fdaec4582d5d9595688c8c98545fdd1c696d41c6aeaeb636737e84ed2f5c00eda600260009054906101000a900473ffffffffffffffffffffffffffffffffffffffff166001546040516106ca929190610b3e565b60405180910390a1565b600073ffffffffffffffffffffffffffffffffffffffff82169050919050565b60006106ff826106d4565b9050919050565b61070f816106f4565b82525050565b600060208201905061072a6000830184610706565b92915050565b6000819050919050565b61074381610730565b82525050565b600060208201905061075e600083018461073a565b92915050565b600080fd5b6000610774826106d4565b9050919050565b61078481610769565b811461078f57600080fd5b50565b6000813590506107a18161077b565b92915050565b6000602082840312156107bd576107bc610764565b5b60006107cb84828501610792565b91505092915050565b600082825260208201905092915050565b7f41756374696f6e206973206e6f742079657420656e6465640000000000000000600082015250565b600061081b6018836107d4565b9150610826826107e5565b602082019050919050565b6000602082019050818103600083015261084a8161080e565b9050919050565b7f42696464657220646964206e6f7420706c616365206120626964000000000000600082015250565b6000610887601a836107d4565b915061089282610851565b602082019050919050565b600060208201905081810360008301526108b68161087a565b9050919050565b7f42696464696e67206973206e6f7420616c6c6f7765642061742074686973207460008201527f696d650000000000000000000000000000000000000000000000000000000000602082015250565b60006109196023836107d4565b9150610924826108bd565b604082019050919050565b600060208201905081810360008301526109488161090c565b9050919050565b7f4e487b7100000000000000000000000000000000000000000000000000000000600052601160045260246000fd5b600061098982610730565b915061099483610730565b9250827fffffffffffffffffffffffffffffffffffffffffffffffffffffffffffffffff038211156109c9576109c861094f565b5b828201905092915050565b7f4269642056616c75652043616e6e6f7420426520300000000000000000000000600082015250565b6000610a0a6015836107d4565b9150610a15826109d4565b602082019050919050565b60006020820190508181036000830152610a39816109fd565b9050919050565b7f4869676865722042696420617661696c61626c65000000000000000000000000600082015250565b6000610a766014836107d4565b9150610a8182610a40565b602082019050919050565b60006020820190508181036000830152610aa581610a69565b9050919050565b7f4f6e6c7920746865206f776e65722063616e2063616c6c20746869732066756e60008201527f6374696f6e000000000000000000000000000000000000000000000000000000602082015250565b6000610b086025836107d4565b9150610b1382610aac565b604082019050919050565b60006020820190508181036000830152610b3781610afb565b9050919050565b6000604082019050610b536000830185610706565b610b60602083018461073a565b939250505056fea2646970667358221220b37c0268d64d36abc2a2f16155dddaef13d7c0576f07dbd484bf4c0d7a055b6464736f6c634300080d0033",
  "immutableReferences": {},
  "source": "// SPDX-License-Identifier: GPL-3.0\r\n\r\npragma solidity ^0.8.13;\r\n\r\ncontract Auction{\r\n    mapping(address => uint) biddersData;\r\n    uint public highestBidAmount;\r\n    address public highestBidder;\r\n    uint public startTime;\r\n    uint public endTime;\r\n    address public owner;\r\n    // bool auctionEnded = false;\r\n    // constructor(){\r\n    //     owner=msg.sender;\r\n    // }\r\n\r\n    event AuctionEnded(address winner, uint amount);\r\n\r\n    modifier onlyOwner() {\r\n        require(msg.sender == owner, \"Only the owner can call this function\");\r\n        _;\r\n    }\r\n\r\n    modifier onlyDuringBidding() {\r\n        require(block.timestamp >= startTime && block.timestamp <= endTime, \"Bidding is not allowed at this time\");\r\n        _;\r\n    }\r\n\r\n    modifier onlyAfterBidding() {\r\n        require(block.timestamp > endTime, \"Auction is not yet ended\");\r\n        _;\r\n    }\r\n\r\n    constructor() {\r\n        owner = msg.sender;\r\n        startTime = block.timestamp ; // Set start time to the next occurrence of the specified hour\r\n        endTime = startTime + 2 minutes;\r\n    }\r\n\r\n\r\n\r\n\r\n    //put new bid\r\n    function putBid() public payable onlyDuringBidding{\r\n        uint calculateAmount = biddersData[msg.sender]+msg.value;\r\n\r\n        //require(block.timestamp>endTime,\"Auction is ended\"); //not func after end time\r\n        require(msg.value>0,\"Bid Value Cannot Be 0\");//verify bid not 0\r\n        require(calculateAmount>highestBidAmount,\"Higher Bid available\");//verify highest bid\r\n        biddersData[msg.sender] = calculateAmount;\r\n        highestBidAmount = calculateAmount;\r\n        highestBidder = msg.sender;\r\n    }\r\n    // Get highest bidder address\r\n    function getHighestBidder() public view returns (address) {\r\n        return highestBidder;\r\n    }\r\n        // Get highest bidder amount\r\n    function getHighestBidAmount() public view returns (uint) {\r\n        return highestBidAmount;\r\n    }\r\n\r\n\r\n\r\n    // //get Contract Balance (test)\r\n    // function getBidderBid(address _address) public view returns(uint){\r\n    //     return biddersData[_address];\r\n    // }\r\n\r\n    // //get Highest BidAmount\r\n    // function HighestBid() public view returns(uint){\r\n    //     return highestBidAmount;\r\n    // }\r\n\r\n    // //get Highest Bidder Address\r\n    // function HighestBidder() public view returns(address){\r\n    //     return highestBidder;\r\n    // }\r\n\r\n    // //put endTime\r\n    // function putEndTime(uint _endTime) public {\r\n    //     endTime= _endTime;\r\n    // }\r\n\r\n    // //endAuction\r\n    // function endAuction() public {\r\n    //     if(msg.sender==owner){\r\n    //         auctionEnded = true;\r\n    //     }\r\n    // }\r\n\r\n    //withdraw bid\r\n//     function withdrawBid(address payable _address) public  {\r\n//         if(biddersData[_address]>0){\r\n//             _address.transfer(biddersData[_address]);\r\n//         }\r\n//     }\r\n// }\r\n\r\nfunction withdrawBid(address payable _address) public onlyAfterBidding {\r\n        require(biddersData[_address] > 0, \"Bidder did not place a bid\");\r\n        _address.transfer(biddersData[_address]);\r\n    }\r\n\r\n    function endAuction() public onlyOwner onlyAfterBidding {\r\n        emit AuctionEnded(highestBidder, highestBidAmount);\r\n    }\r\n}",
  "sourcePath": "C:\\Users\\admin\\Documents\\Auction_BKT\\contracts\\Auction.sol",
  "compiler": {
    "name": "solc",
    "version": "0.8.13+commit.abaa5c0e.Emscripten.clang"
  },
  "schemaVersion": "3.4.16",
  "updatedAt": "2024-01-26T18:53:06.820Z",
  "networkType": "ethereum",
  "devdoc": {
    "kind": "dev",
    "methods": {},
    "version": 1
  },
  "userdoc": {
    "kind": "user",
    "methods": {},
    "version": 1
  }
}